:100000000C942A000C9447000C9447000C94470071
:100010000C9447000C9447000C9447000C94470044
:100020000C9447000C9447000C9447000C94470034
:100030000C9447000C9447000C9447000C94470024
:100040000C9447000C9447000C9447000C94470014
:100050000C94470011241FBECFE5D8E0DEBFCDBF12
:1000600010E0A0E6B0E0E4E9F7E002C005900D92F0
:10007000AC36B107D9F710E0ACE6B0E001C01D9294
:10008000A837B107E1F70E947E010C94C8030C94D5
:1000900000002091700030917100C9010197875EC6
:1000A000934028F480E285BB84E690E00AC0C90151
:1000B000885E93408852934248F480E185BB88EE85
:1000C00093E090936B0080936A000895205137422B
:1000D00040F088E085BB80E197E290936B008093CD
:1000E0006A0008952091720030917300C90168EE92
:1000F00073E00E94B40360936C00C90168EE73E082
:100100000E94B40364E670E00E94B40360936D0043
:10011000C90164E670E00E94B4036AE070E00E94E6
:10012000B40360936E00C9016AE070E00E94B403FA
:1001300080936F0008950E94720080916F00A0E686
:10014000B0E0FD01E80FF11D808188BB939A28EC97
:1001500030E0C9010197F1F7939880916E00FD019D
:10016000E80FF11D808188BB929AC9010197F1F7D0
:10017000929880916D00FD01E80FF11D808188BB90
:10018000919AC9010197F1F7919880916C00A80F9D
:10019000B11D8C9188BB909AC9010197F1F7909895
:1001A00080E888BB909AC9010197F1F7909808956B
:1001B0008FEF87BB81B38F6081BB84B3886384BBBF
:1001C00083E886B982E487B90895EF92FF920F938E
:1001D0001F93A09AA898A198A298E0907400F0901C
:1001E0007500009176001091770060E070E48CE972
:1001F00095E4A80197010E94CA0120E030E048EC94
:1002000052E40E945103A80197010E942F020E940C
:100210009702709371006093700070937300609305
:1002200072001F910F91FF90EF900895EF92FF924F
:100230000F931F93A19AA998A098A298E090740098
:10024000F0907500009176001091770060E070E406
:100250008CE995E4A80197010E94CA0120E030E0F2
:100260004AE754E40E945103A80197010E942F021B
:100270000E949702709371006093700070937300F6
:10028000609372001F910F91FF90EF900895EF928D
:10029000FF920F931F93A29AAA98A198A098E0901A
:1002A0007400F0907500009176001091770060E086
:1002B00070E48CE995E4A80197010E94CA0120E04E
:1002C00030E44CE156E40E945103A80197010E94DA
:1002D0002F020E949702DC01CB0190937100809362
:1002E00070006AE070E00E94B40370937300609342
:1002F00072001F910F91FF90EF9008950F931F933D
:10030000CF93DF930E94D800369A369BFECF24B15C
:1003100085B1182F00E030E0202B312BB901660F9A
:10032000771F660F771F620F731F80E090E00E94B7
:10033000C3022AEA31EF42E85FE30E942F02609392
:10034000740070937500809376009093770080918D
:100350006A0090916B008436910529F40E94E500B3
:10036000C0E0D0E00DC023E0883E920719F40E945F
:100370001601F6CF8051974299F70E944701F0CFBE
:100380000E949B000E9449002196C431D10509F4C6
:10039000BBCFF6CF5058BB27AA270ED048C139D1C2
:1003A00030F03ED120F031F49F3F11F41EF42EC105
:1003B0000EF4E095E7FB24C1E92F4AD180F3BA1788
:1003C000620773078407950718F071F49EF562C100
:1003D0000EF4E0950B2EBA2FA02D0B01B901900160
:1003E0000C01CA01A0011124FF27591B99F0593FA4
:1003F00050F4503E68F11A16F040A22F232F342FEC
:100400004427585FF3CF469537952795A795F04039
:100410005395C9F77EF41F16BA0B620B730B840B4E
:10042000BAF09150A1F0FF0FBB1F661F771F881F06
:10043000C2F70EC0BA0F621F731F841F48F487955E
:1004400077956795B795F7959E3F08F0B3CF93954D
:10045000880F08F09927EE0F9795879508950CD08F
:10046000E6C0DED040F0D5D030F021F45F3F19F087
:10047000C7C0511110C1CAC0EBD098F39923C9F37A
:100480005523B1F3951B550BBB27AA27621773079A
:10049000840738F09F5F5F4F220F331F441FAA1F4E
:1004A000A9F333D00E2E3AF0E0E830D0915050400E
:1004B000E695001CCAF729D0FE2F27D0660F771FBC
:1004C000881FBB1F261737074807AB07B0E809F09E
:1004D000BB0B802DBF01FF2793585F4F2AF09E3F33
:1004E000510568F08DC0D7C05F3FECF3983EDCF358
:1004F000869577956795B795F7959F5FC9F7880FAC
:10050000911D9695879597F90895E1E0660F771FFD
:10051000881FBB1F621773078407BA0720F0621B8E
:10052000730B840BBA0BEE1F88F7E095089598D0F3
:1005300088F09F5790F0B92F9927B751A0F0D1F0CC
:10054000660F771F881F991F1AF0BA95C9F712C056
:10055000B13081F09FD0B1E008959CC0672F782F13
:100560008827B85F39F0B93FCCF3869577956795C2
:10057000B395D9F73EF490958095709561957F4F2E
:100580008F4F9F4F0895E89409C097FB3EF49095D4
:100590008095709561957F4F8F4F9F4F9923A9F05C
:1005A000F92F96E9BB279395F695879577956795EB
:1005B000B795F111F8CFFAF4BB0F11F460FF1BC02F
:1005C0006F5F7F4F8F4F9F4F16C0882311F096E9C2
:1005D00011C0772321F09EE8872F762F05C0662370
:1005E00071F096E8862F70E060E02AF09A95660F29
:1005F000771F881FDAF7880F9695879597F90895E2
:1006000097F99F6780E870E060E008959FEF80ECC5
:10061000089500240A941616170618060906089568
:1006200000240A9412161306140605060895092ECE
:100630000394000C11F4882352F0BB0F40F4BF2B3D
:1006400011F460FF04C06F5F7F4F8F4F9F4F08957D
:1006500057FD9058440F551F59F05F3F71F0479573
:10066000880F97FB991F61F09F3F79F08795089558
:10067000121613061406551FF2CF4695F1DF08C077
:10068000161617061806991FF1CF86957105610594
:1006900008940895E894BB2766277727CB0197F93C
:1006A00008950BD0C4CFB5DF28F0BADF18F095233A
:1006B00009F0A6CFABCF1124EECFCADFA0F3959FF0
:1006C000D1F3950F50E0551F629FF001729FBB2739
:1006D000F00DB11D639FAA27F00DB11DAA1F649FE5
:1006E0006627B00DA11D661F829F2227B00DA11D98
:1006F000621F739FB00DA11D621F839FA00D611D1E
:10070000221F749F3327A00D611D231F849F600D3E
:10071000211D822F762F6A2F11249F5750408AF077
:10072000E1F088234AF0EE0FFF1FBB1F661F771F03
:10073000881F91505040A9F79E3F510570F060CF3F
:10074000AACF5F3FECF3983EDCF3869577956795EB
:10075000B795F795E7959F5FC1F7FE2B880F911D21
:100760009695879597F90895AA1BBB1B51E107C081
:10077000AA1FBB1FA617B70710F0A61BB70B881F31
:10078000991F5A95A9F780959095BC01CD010895C0
:04079000F894FFCF0B
:0C0794003F065B4F666D7D077F6FE8033A
:00000001FF
